{
  "contractName": "CoinToFlip",
  "abi": [
    {
      "constant": true,
      "inputs": [],
      "name": "owner",
      "outputs": [
        {
          "name": "",
          "type": "address"
        }
      ],
      "payable": false,
      "stateMutability": "view",
      "type": "function",
      "signature": "0x8da5cb5b"
    },
    {
      "constant": true,
      "inputs": [],
      "name": "lockedInBets",
      "outputs": [
        {
          "name": "",
          "type": "uint256"
        }
      ],
      "payable": false,
      "stateMutability": "view",
      "type": "function",
      "signature": "0xdf88126f"
    },
    {
      "inputs": [],
      "payable": false,
      "stateMutability": "nonpayable",
      "type": "constructor",
      "signature": "constructor"
    },
    {
      "payable": true,
      "stateMutability": "payable",
      "type": "fallback"
    },
    {
      "anonymous": false,
      "inputs": [
        {
          "indexed": false,
          "name": "reveal",
          "type": "uint256"
        }
      ],
      "name": "Reveal",
      "type": "event",
      "signature": "0x1747b48b6ade85d7dc97c0f523e0e780795930a468c01b18a51546791fdd3ac0"
    },
    {
      "anonymous": false,
      "inputs": [
        {
          "indexed": true,
          "name": "beneficiary",
          "type": "address"
        },
        {
          "indexed": false,
          "name": "amount",
          "type": "uint256"
        }
      ],
      "name": "Payment",
      "type": "event",
      "signature": "0xd4f43975feb89f48dd30cabbb32011045be187d1e11c8ea9faa43efc35282519"
    },
    {
      "anonymous": false,
      "inputs": [
        {
          "indexed": true,
          "name": "beneficiary",
          "type": "address"
        },
        {
          "indexed": false,
          "name": "amount",
          "type": "uint256"
        }
      ],
      "name": "FailedPayment",
      "type": "event",
      "signature": "0xac464fe4d3a86b9121261ac0a01dd981bfe0777c7c9d9c8f4473d31a9c0f9d2d"
    },
    {
      "constant": false,
      "inputs": [
        {
          "name": "beneficiary",
          "type": "address"
        },
        {
          "name": "withdrawAmount",
          "type": "uint256"
        }
      ],
      "name": "withdrawFunds",
      "outputs": [],
      "payable": false,
      "stateMutability": "nonpayable",
      "type": "function",
      "signature": "0xc1075329"
    },
    {
      "constant": false,
      "inputs": [],
      "name": "kill",
      "outputs": [],
      "payable": false,
      "stateMutability": "nonpayable",
      "type": "function",
      "signature": "0x41c0e1b5"
    },
    {
      "constant": false,
      "inputs": [
        {
          "name": "betMask",
          "type": "uint8"
        }
      ],
      "name": "placeBet",
      "outputs": [],
      "payable": true,
      "stateMutability": "payable",
      "type": "function",
      "signature": "0x43046844"
    },
    {
      "constant": false,
      "inputs": [
        {
          "name": "seed",
          "type": "uint8"
        }
      ],
      "name": "revealResult",
      "outputs": [],
      "payable": false,
      "stateMutability": "nonpayable",
      "type": "function",
      "signature": "0x1e1871e9"
    },
    {
      "constant": false,
      "inputs": [],
      "name": "refundBet",
      "outputs": [],
      "payable": false,
      "stateMutability": "nonpayable",
      "type": "function",
      "signature": "0x11ea8acb"
    },
    {
      "constant": true,
      "inputs": [],
      "name": "checkHouseFund",
      "outputs": [
        {
          "name": "",
          "type": "uint256"
        }
      ],
      "payable": false,
      "stateMutability": "view",
      "type": "function",
      "signature": "0x172f8276"
    }
  ],
  "bytecode": "0x608060405234801561001057600080fd5b50336000806101000a81548173ffffffffffffffffffffffffffffffffffffffff021916908373ffffffffffffffffffffffffffffffffffffffff160217905550611202806100606000396000f3fe60806040526004361061008e576000357c0100000000000000000000000000000000000000000000000000000000900463ffffffff16806311ea8acb14610090578063172f8276146100a75780631e1871e9146100d257806341c0e1b51461011057806343046844146101275780638da5cb5b14610158578063c1075329146101af578063df88126f1461020a575b005b34801561009c57600080fd5b506100a5610235565b005b3480156100b357600080fd5b506100bc610431565b6040518082815260200191505060405180910390f35b3480156100de57600080fd5b5061010e600480360360208110156100f557600080fd5b81019080803560ff16906020019092919050505061053a565b005b34801561011c57600080fd5b50610125610808565b005b6101566004803603602081101561013d57600080fd5b81019080803560ff1690602001909291905050506109cc565b005b34801561016457600080fd5b5061016d610d4b565b604051808273ffffffffffffffffffffffffffffffffffffffff1673ffffffffffffffffffffffffffffffffffffffff16815260200191505060405180910390f35b3480156101bb57600080fd5b50610208600480360360408110156101d257600080fd5b81019080803573ffffffffffffffffffffffffffffffffffffffff16906020019092919080359060200190929190505050610d70565b005b34801561021657600080fd5b5061021f610efb565b6040518082815260200191505060405180910390f35b6000600260003373ffffffffffffffffffffffffffffffffffffffff1673ffffffffffffffffffffffffffffffffffffffff1681526020019081526020016000209050600081600001549050816002015443111515610322576040517f08c379a00000000000000000000000000000000000000000000000000000000081526004018080602001828103825260338152602001807f726566756e6442657420696e207468652073616d6520626c6f636b206173207081526020017f6c6163654265742c206f72206265666f72652e0000000000000000000000000081525060400191505060405180910390fd5b6000811115156103c0576040517f08c379a00000000000000000000000000000000000000000000000000000000081526004018080602001828103825260228152602001807f4265742073686f756c6420626520696e20616e2027616374697665272073746181526020017f746500000000000000000000000000000000000000000000000000000000000081525060400191505060405180910390fd5b60008260010160009054906101000a900460ff1690506104048360030160019054906101000a900473ffffffffffffffffffffffffffffffffffffffff1683610f01565b60006104108383610fe1565b90508060016000828254039250508190555061042b336110c3565b50505050565b60008060009054906101000a900473ffffffffffffffffffffffffffffffffffffffff1673ffffffffffffffffffffffffffffffffffffffff163373ffffffffffffffffffffffffffffffffffffffff1614151561051d576040517f08c379a00000000000000000000000000000000000000000000000000000000081526004018080602001828103825260228152602001807f4f6e6c79206f776e65722063616e2063616c6c20746869732066756e6374696f81526020017f6e2e00000000000000000000000000000000000000000000000000000000000081525060400191505060405180910390fd5b3073ffffffffffffffffffffffffffffffffffffffff1631905090565b6000600260003373ffffffffffffffffffffffffffffffffffffffff1673ffffffffffffffffffffffffffffffffffffffff168152602001908152602001600020905060008160000154905060008260010160009054906101000a900460ff16905060008360020154905060008460030160019054906101000a900473ffffffffffffffffffffffffffffffffffffffff16905060008411151561066c576040517f08c379a00000000000000000000000000000000000000000000000000000000081526004018080602001828103825260228152602001807f4265742073686f756c6420626520696e20616e2027616374697665272073746181526020017f746500000000000000000000000000000000000000000000000000000000000081525060400191505060405180910390fd5b8143111515610709576040517f08c379a00000000000000000000000000000000000000000000000000000000081526004018080602001828103825260368152602001807f72657665616c526573756c7420696e207468652073616d6520626c6f636b206181526020017f7320706c6163654265742c206f72206265666f72652e0000000000000000000081525060400191505060405180910390fd5b60008660ff164303408340604051602001808381526020018281526020019250505060405160208183030381529060405280519060200120905060006002826001900481151561075557fe5b0690506000809050600080905061076c8888610fe1565b905060008960030160009054906101000a900460ff1660ff168460020a16141515610795578091505b7f1747b48b6ade85d7dc97c0f523e0e780795930a468c01b18a51546791fdd3ac08360020a6040518082815260200191505060405180910390a160008211156107e3576107e28583610f01565b5b806001600082825403925050819055506107fc336110c3565b50505050505050505050565b6000809054906101000a900473ffffffffffffffffffffffffffffffffffffffff1673ffffffffffffffffffffffffffffffffffffffff163373ffffffffffffffffffffffffffffffffffffffff161415156108f2576040517f08c379a00000000000000000000000000000000000000000000000000000000081526004018080602001828103825260228152602001807f4f6e6c79206f776e65722063616e2063616c6c20746869732066756e6374696f81526020017f6e2e00000000000000000000000000000000000000000000000000000000000081525060400191505060405180910390fd5b6000600154141515610992576040517f08c379a00000000000000000000000000000000000000000000000000000000081526004018080602001828103825260328152602001807f416c6c20626574732073686f756c642062652070726f6365737365642062656681526020017f6f72652073656c662d64657374727563742e000000000000000000000000000081525060400191505060405180910390fd5b6000809054906101000a900473ffffffffffffffffffffffffffffffffffffffff1673ffffffffffffffffffffffffffffffffffffffff16ff5b6000349050662386f26fc1000081101580156109f05750678ac7230489e800008111155b1515610a64576040517f08c379a00000000000000000000000000000000000000000000000000000000081526004018080602001828103825260178152602001807f416d6f756e74206973206f7574206f662072616e67652e00000000000000000081525060200191505060405180910390fd5b60008260ff16118015610a7b57506101008260ff16105b1515610aef576040517f08c379a00000000000000000000000000000000000000000000000000000000081526004018080602001828103825260148152602001807f4d61736b2073686f756c6420626520382062697400000000000000000000000081525060200191505060405180910390fd5b6000600260003373ffffffffffffffffffffffffffffffffffffffff1673ffffffffffffffffffffffffffffffffffffffff1681526020019081526020016000209050600073ffffffffffffffffffffffffffffffffffffffff168160030160019054906101000a900473ffffffffffffffffffffffffffffffffffffffff1673ffffffffffffffffffffffffffffffffffffffff16141515610bfa576040517f08c379a000000000000000000000000000000000000000000000000000000000815260040180806020018281038252601a8152602001807f4265742073686f756c6420626520656d7074792073746174652e00000000000081525060200191505060405180910390fd5b6000610c058461119e565b9050828260000181905550808260010160006101000a81548160ff021916908360ff160217905550438260020181905550838260030160006101000a81548160ff021916908360ff160217905550338260030160016101000a81548173ffffffffffffffffffffffffffffffffffffffff021916908373ffffffffffffffffffffffffffffffffffffffff1602179055506000610ca28483610fe1565b9050806001600082825401925050819055503073ffffffffffffffffffffffffffffffffffffffff1631600154101515610d44576040517f08c379a000000000000000000000000000000000000000000000000000000000815260040180806020018281038252601d8152602001807f43616e6e6f74206166666f726420746f2070617920746865206265742e00000081525060200191505060405180910390fd5b5050505050565b6000809054906101000a900473ffffffffffffffffffffffffffffffffffffffff1681565b6000809054906101000a900473ffffffffffffffffffffffffffffffffffffffff1673ffffffffffffffffffffffffffffffffffffffff163373ffffffffffffffffffffffffffffffffffffffff16141515610e5a576040517f08c379a00000000000000000000000000000000000000000000000000000000081526004018080602001828103825260228152602001807f4f6e6c79206f776e65722063616e2063616c6c20746869732066756e6374696f81526020017f6e2e00000000000000000000000000000000000000000000000000000000000081525060400191505060405180910390fd5b3073ffffffffffffffffffffffffffffffffffffffff1631600154820111151515610eed576040517f08c379a00000000000000000000000000000000000000000000000000000000081526004018080602001828103825260148152602001807f6c6172676572207468616e2062616c616e63652e00000000000000000000000081525060200191505060405180910390fd5b610ef78282610f01565b5050565b60015481565b8173ffffffffffffffffffffffffffffffffffffffff166108fc829081150290604051600060405180830381858888f1935050505015610f8e578173ffffffffffffffffffffffffffffffffffffffff167fd4f43975feb89f48dd30cabbb32011045be187d1e11c8ea9faa43efc35282519826040518082815260200191505060405180910390a2610fdd565b8173ffffffffffffffffffffffffffffffffffffffff167fac464fe4d3a86b9121261ac0a01dd981bfe0777c7c9d9c8f4473d31a9c0f9d2d826040518082815260200191505060405180910390a25b5050565b60008160ff166000108015610ff9575060028260ff16105b151561106d576040517f08c379a000000000000000000000000000000000000000000000000000000000815260040180806020018281038252601b8152602001807f50726f626162696c697479206973206f7574206f662072616e6765000000000081525060200191505060405180910390fd5b600060646005850281151561107e57fe5b0490506611c37937e0800081101561109b576611c37937e0800090505b60006001840360ff16600201858115156110b157fe5b04905080828603019250505092915050565b6000600260008373ffffffffffffffffffffffffffffffffffffffff1673ffffffffffffffffffffffffffffffffffffffff16815260200190815260200160002090506000816000018190555060008160010160006101000a81548160ff021916908360ff1602179055506000816002018190555060008160030160006101000a81548160ff021916908360ff16021790555060008160030160016101000a81548173ffffffffffffffffffffffffffffffffffffffff021916908373ffffffffffffffffffffffffffffffffffffffff1602179055505050565b6000805b60008360ff1611156111cd57600183168101905060018360ff16908060020a820491505092506111a2565b8091505091905056fea165627a7a72305820f753e54b1be7f7b7bbdc0a41e2867e5fae9696dc5d751cd20496ff603405de9a0029",
  "source": "pragma solidity ^0.5.0;\r\n\r\n// ----------------------------------------------------------------------------\r\n// CoinToFlip.sol\r\n// Simple Coin flip game\r\n//\r\n// Educational purpose only.\r\n// ----------------------------------------------------------------------------\r\ncontract CoinToFlip {\r\n\r\n    uint constant MAX_CASE = 2; // for coin\r\n    uint constant MIN_BET = 0.01 ether;\r\n    uint constant MAX_BET = 10 ether;\r\n    uint constant HOUSE_FEE_PERCENT = 5;\r\n    uint constant HOUSE_MIN_FEE = 0.005 ether;\r\n\r\n    address payable public owner;\r\n    uint public lockedInBets;\r\n\r\n    struct Bet {\r\n        uint amount;\r\n        uint8 numOfBetBit;\r\n        uint placeBlockNumber; // Block number of Bet tx.\r\n        // Bit mask representing winning bet outcomes\r\n        // 0000 0010 for front side of coin, 50% chance\r\n        // 0000 0001 for back side of coin, 50% chance\r\n        // 0000 0011 for both sides,  100% chance - no reward!\r\n        uint8 mask;\r\n        address payable gambler; // Address of a gambler, used to pay out winning bets.\r\n    }\r\n\r\n    mapping (address => Bet) bets; //Bet book\r\n\r\n    event Reveal(uint reveal);//1 or 2\r\n    event Payment(address indexed beneficiary, uint amount);\r\n    event FailedPayment(address indexed beneficiary, uint amount);\r\n\r\n\r\n    constructor () public {\r\n        owner = msg.sender;\r\n    }\r\n\r\n    // Standard modifier on methods invokable only by contract owner.\r\n    modifier onlyOwner {\r\n        require (msg.sender == owner, \"Only owner can call this function.\");\r\n        _;\r\n    }\r\n\r\n\r\n    // Funds withdrawal to maintain the house\r\n    function withdrawFunds(address payable beneficiary, uint withdrawAmount) external onlyOwner {\r\n        require (withdrawAmount + lockedInBets <= address(this).balance, \"larger than balance.\");\r\n        sendFunds(beneficiary, withdrawAmount);\r\n    }\r\n\r\n    function sendFunds(address payable beneficiary, uint amount) private {\r\n        if (beneficiary.send(amount)) {\r\n            emit Payment(beneficiary, amount);\r\n        } else {\r\n            emit FailedPayment(beneficiary, amount);\r\n        }\r\n    }\r\n\r\n\r\n    function kill() external onlyOwner {\r\n        require (lockedInBets == 0, \"All bets should be processed before self-destruct.\");\r\n        selfdestruct(owner);\r\n    }\r\n\r\n\r\n    function () external payable {}\r\n\r\n\r\n    //Bet by player\r\n    function placeBet(uint8 betMask) external payable {\r\n\r\n        uint amount = msg.value;\r\n\r\n        require (amount >= MIN_BET && amount <= MAX_BET, \"Amount is out of range.\");\r\n        require (betMask > 0 && betMask < 256, \"Mask should be 8 bit\");\r\n\r\n        Bet storage bet = bets[msg.sender]; //mapping bets(address => Bet)\r\n        //Bet bet = bets[msg.sender];\r\n\r\n        require (bet.gambler == address(0), \"Bet should be empty state.\"); //can place a bet\r\n        //if (bet.gambler == null) X\r\n\r\n        //count bet bit in the betMask\r\n        //0000 0011  number of bits = 2\r\n        //0000 0001  number of bits = 1\r\n        uint8 numOfBetBit = countBits(betMask);\r\n\r\n        bet.amount = amount;\r\n        bet.numOfBetBit = numOfBetBit;\r\n        bet.placeBlockNumber = block.number;\r\n        bet.mask = betMask;\r\n        bet.gambler = msg.sender;\r\n\r\n        // need to lock possible winning amount to pay\r\n        uint possibleWinningAmount = getWinningAmount(amount, numOfBetBit);\r\n        lockedInBets += possibleWinningAmount;\r\n\r\n        // Check whether house has enough ETH to pay the bet.\r\n        require(lockedInBets < address(this).balance, \"Cannot afford to pay the bet.\");\r\n    }\r\n\r\n    function getWinningAmount(uint amount, uint8 numOfBetBit) private pure returns (uint winningAmount) {\r\n\r\n        require (0 < numOfBetBit && numOfBetBit < MAX_CASE, \"Probability is out of range\"); // 1\r\n\r\n        uint houseFee = amount * HOUSE_FEE_PERCENT / 100;\r\n\r\n        if (houseFee < HOUSE_MIN_FEE) {\r\n            houseFee = HOUSE_MIN_FEE;\r\n        }\r\n\r\n        //reward calculation is depends on your own idea\r\n        uint reward = amount / (MAX_CASE + (numOfBetBit-1));\r\n\r\n        winningAmount = (amount - houseFee) + reward;\r\n    }\r\n\r\n    //\r\n    //\r\n    //\r\n    //Reveal the coin by player\r\n    function revealResult(uint8 seed) external {\r\n\r\n        Bet storage bet = bets[msg.sender];\r\n        uint amount = bet.amount;\r\n        uint8 numOfBetBit = bet.numOfBetBit;\r\n        uint placeBlockNumber = bet.placeBlockNumber;\r\n        address payable gambler = bet.gambler;\r\n\r\n        require (amount > 0, \"Bet should be in an 'active' state\");\r\n\r\n        // should be called after placeBet\r\n        require(block.number > placeBlockNumber, \"revealResult in the same block as placeBet, or before.\");\r\n\r\n        //RNG(Random Number Generator)\r\n        bytes32 random = keccak256(abi.encodePacked(blockhash(block.number-seed), blockhash(placeBlockNumber)));\r\n\r\n        uint reveal = uint(random) % MAX_CASE; // 0 or 1\r\n\r\n        uint winningAmount = 0;\r\n        uint possibleWinningAmount = 0;\r\n        possibleWinningAmount = getWinningAmount(amount, numOfBetBit);\r\n\r\n        if ((2 ** reveal) & bet.mask != 0) {\r\n            winningAmount = possibleWinningAmount;\r\n        }\r\n\r\n        emit Reveal(2 ** reveal);\r\n\r\n        if (winningAmount > 0) {\r\n            sendFunds(gambler, winningAmount);\r\n        }\r\n\r\n        lockedInBets -= possibleWinningAmount;\r\n        clearBet(msg.sender);\r\n    }\r\n\r\n\r\n    function clearBet(address player) private {\r\n        Bet storage bet = bets[player];\r\n\r\n        bet.amount = 0;\r\n        bet.numOfBetBit = 0;\r\n        bet.placeBlockNumber = 0;\r\n        bet.mask = 0;\r\n        bet.gambler = address(0); // NULL\r\n    }\r\n\r\n\r\n\r\n    //can refund before reveal\r\n    function refundBet() external {\r\n\r\n        Bet storage bet = bets[msg.sender];\r\n        uint amount = bet.amount;\r\n\r\n        // Check that bet has been already mined.\r\n        require(block.number > bet.placeBlockNumber, \"refundBet in the same block as placeBet, or before.\");\r\n        require (amount > 0, \"Bet should be in an 'active' state\");\r\n\r\n        uint8 numOfBetBit = bet.numOfBetBit;\r\n\r\n        // Send the refund.\r\n        sendFunds(bet.gambler, amount);\r\n\r\n        uint possibleWinningAmount;\r\n        possibleWinningAmount = getWinningAmount(amount, numOfBetBit);\r\n\r\n        lockedInBets -= possibleWinningAmount;\r\n        clearBet(msg.sender);\r\n    }\r\n\r\n\r\n    function checkHouseFund() public view onlyOwner returns(uint) {\r\n        return address(this).balance;\r\n    }\r\n\r\n\r\n    function countBits(uint8 _num) internal pure returns (uint8){\r\n        uint8 count;\r\n        while (_num > 0){\r\n            count += _num & 1;\r\n            _num >>= 1;\r\n        }\r\n        return count;\r\n    }\r\n\r\n\r\n}",
  "sourcePath": "C:/Users/song/react-dapp/contracts/CoinToFlip.sol",
  "compiler": {
    "name": "solc",
    "version": "0.5.0+commit.1d4f565a.Emscripten.clang"
  },
  "schemaVersion": "3.0.1",
  "updatedAt": "2019-01-11T23:02:16.677Z",
  "devdoc": {
    "methods": {}
  },
  "userdoc": {
    "methods": {}
  }
}